:100000000C945D000C947A000C947A000C947A00A5
:100010000C947A000C947A000C947A000C9494025C
:100020000C947A000C947A000C947A000C947A0068
:100030000C947A000C947A000C947A000C947A0058
:100040000C9416030C947A000C947A000C947A00A9
:100050000C947A000C947A000C947A000C947A0038
:100060000C947A000C947A00000000080002010051
:100070000003040700000000000000000200000070
:1000800000250028002B0000000000240027002A83
:100090000004040404040404040202020202020331
:1000A000030303030301020408102040800102043B
:1000B0000810200102040810200011241FBECFEFF9
:1000C000D8E0DEBFCDBF11E0A0E0B1E0E2E7F8E0AC
:1000D00002C005900D92A230B107D9F721E0A2E04D
:1000E000B1E001C01D92AC31B207E1F70E9460039C
:1000F0000C9437040C94000090E0FC01EB55FF4F8A
:1001000024918F569F4FFC018491882399F090E0B1
:10011000880F991FFC01E957FF4FA591B491FC018D
:10012000E358FF4F859194918FB7F894EC91E22BAF
:10013000EC938FBF08954F925F926F927F928F9250
:100140009F92AF92BF92CF92DF92EF92FF920F9366
:100150001F93CF938C016A017B018091000188304D
:1001600099F08F3F09F45BC0CF911F910F91FF90E1
:10017000EF90DF90CF90BF90AF909F908F907F9047
:100180006F905F904F900895ECE7F0E0C491C7FD49
:10019000EBCF88E00E947C002801712C612CCC23DD
:1001A000F1F0980150E040E0C23009F0A6C028010B
:1001B0003A0160E970ED83E090E00E94FE0349019E
:1001C0005A0181E0881A9108A108B10893E08FEFE5
:1001D00088169104A104B10409F00CF4DCC068E4B1
:1001E00078EE81E090E0A30192010E94FE034901B4
:1001F0005A0181E0881A9108A108B10894E0C11160
:10020000CAC085B5887F836085BD2FEF3FEFA90108
:10021000C114D104E104F10409F4D1C08CC088E018
:1002200080930001ECE7F0E0C491CF3F09F49CCF4C
:10023000C13019F148F0C23009F43DC0C7FD94CF78
:1002400088E00E947C00ADCF14BC15BC84B58260F0
:1002500084BD85B5816085BDE9E9F0E0E491F0E019
:10026000EE0FFF1FE358FF4F85919491EDEAF0E008
:10027000E491E0930F01C0E08CCF109280001092C7
:10028000810080918100886080938100809181004D
:10029000816080938100E9E9F0E0E491F0E0EE0F05
:1002A000FF1FE358FF4F85919491EDEAF0E0E49150
:1002B000E0930E016ECF1092B0001092B1008091C9
:1002C000B00082608093B0008091B1008160809323
:1002D000B100E9E9F0E0E491F0E0EE0FFF1FE35830
:1002E000FF4F8591949190930D0180930C01EDEA5D
:1002F000F0E0E491E0930B014CCF60E072E18AE71B
:1003000090E00E94FE0349015A0181E0881A910899
:10031000A108B108C13009F044C080918100887FF4
:100320008160809381002FEF3FEFA901C114D104B8
:10033000E104F10471F0D801AA0FBB1FA7019601D7
:100340000E941D0428EE33E040E050E00E94DC03F0
:1003500030C09092890080928800209314013093DD
:100360001501409316015093170180916F00826030
:1003700080936F00F9CE8092B300209310013093E8
:10038000110140931201509313018091700082601B
:1003900080937000E9CE8091B100887F892B809393
:1003A000B1002FEF3FEFA901C114D104E104F10422
:1003B00011F6C13071F2C230F1F2C111D5CE87BC55
:1003C000209318013093190140931A0150931B0197
:1003D00080916E00826080936E00C6CE90E0FC013A
:1003E000E859FF4F2491FC01EB55FF4F3491FC017C
:1003F000EF56FF4FE491EE23C9F0222339F023306A
:1004000001F1A8F4213019F1223029F1F0E0EE0FCA
:10041000FF1FE358FF4FA591B4918FB7F894EC916B
:10042000611126C030953E233C938FBF089527303D
:10043000A9F02830C9F0243049F7809180008F7DE1
:1004400003C0809180008F7780938000DFCF84B5D8
:100450008F7784BDDBCF84B58F7DFBCF8091B000DB
:100460008F778093B000D2CF8091B0008F7DF9CF8D
:100470003E2BDACF3FB7F8948091070190910801A5
:10048000A0910901B0910A0126B5A89B05C02F3F94
:1004900019F00196A11DB11D3FBFBA2FA92F982FAA
:1004A0008827BC01CD01620F711D811D911D42E0A5
:1004B000660F771F881F991F4A95D1F708958F926D
:1004C0009F92AF92BF92CF92DF92EF92FF920E94E3
:1004D0003A024B015C0188ECC82ED12CE12CF12CA6
:1004E0000E943A02681979098A099B09683E73409B
:1004F00081059105A8F321E0C21AD108E108F108AD
:1005000088EE880E83E0981EA11CB11CC114D10492
:10051000E104F10429F7FF90EF90DF90CF90BF90B6
:10052000AF909F908F9008951F920F920FB60F92E9
:1005300011242F933F934F935F936F937F938F93E8
:100540009F93AF93BF93EF93FF938091100190918E
:100550001101A0911201B0911301892B8A2B8B2BD1
:10056000D1F190910B01E0910C01F0910D0180818E
:10057000892780838091100190911101A09112012F
:10058000B0911301181619061A061B069CF48091E7
:10059000100190911101A0911201B09113010197E6
:1005A000A109B1098093100190931101A093120148
:1005B000B0931301FF91EF91BF91AF919F918F91F4
:1005C0007F916F915F914F913F912F910F900FBE4F
:1005D0000F901F90189580910001ECE7F0E0E491F6
:1005E0009FEF90930001E13051F030F0E23069F07C
:1005F00060E00E94EE01DECF10926E00F9CF909184
:100600006F009D7F90936F00F3CF909170009D7F5E
:100610009093700091E09093B0009091B100987F1A
:1006200094609093B1001092B300E2CF1F920F92AA
:100630000FB60F9211242F933F938F939F93AF93F5
:10064000BF938091030190910401A0910501B091A5
:1006500006013091020123E0230F2D3758F5019652
:10066000A11DB11D20930201809303019093040109
:10067000A0930501B09306018091070190910801B4
:10068000A0910901B0910A010196A11DB11D8093AD
:10069000070190930801A0930901B0930A01BF914B
:1006A000AF919F918F913F912F910F900FBE0F901F
:1006B0001F90189526E8230F0296A11DB11DD2CFD9
:1006C000789484B5826084BD84B5816084BD85B52D
:1006D000826085BD85B5816085BD80916E00816039
:1006E00080936E00109281008091810082608093DF
:1006F00081008091810081608093810080918000E1
:100700008160809380008091B10084608093B1000B
:100710008091B00081608093B00080917A00846005
:1007200080937A0080917A00826080937A00809131
:100730007A00816080937A0080917A00806880934B
:100740007A001092C1008DE00E947C008CE00E9433
:100750007C00C0E0D0E061E08CE00E94EE0144EF5C
:1007600051E060E070E088E795E00E949B000E9405
:100770005F0244EF51E060E070E080E293E00E94AD
:100780009B000E945F0244EF51E060E070E088E06F
:1007900097E00E949B000E945F0244EF51E060E0FE
:1007A00070E088E592E00E949B000E945F02209723
:1007B00091F20E940000CFCFA1E21A2EAA1BBB1B10
:1007C000FD010DC0AA1FBB1FEE1FFF1FA217B3071D
:1007D000E407F50720F0A21BB30BE40BF50B661F33
:1007E000771F881F991F1A9469F7609570958095F7
:1007F00090959B01AC01BD01CF010895052E97FB9B
:100800001EF400940E94150457FD07D00E94DC03DB
:1008100007FC03D04EF40C94150450954095309588
:1008200021953F4F4F4F5F4F08959095809570955C
:1008300061957F4F8F4F9F4F08950E942804A59F79
:10084000900DB49F900DA49F800D911D11240895CB
:10085000A29FB001B39FC001A39F700D811D112401
:10086000911DB29F700D811D1124911D0895F89462
:02087000FFCFB8
:02087200FF0085
:107E0000112484B714BE81FFF0D085E080938100F7
:107E100082E08093C00088E18093C10086E0809377
:107E2000C20080E18093C4008EE0C9D0259A86E02C
:107E300020E33CEF91E0309385002093840096BBD3
:107E4000B09BFECF1D9AA8958150A9F7CC24DD24C4
:107E500088248394B5E0AB2EA1E19A2EF3E0BF2EE7
:107E6000A2D0813461F49FD0082FAFD0023811F036
:107E7000013811F484E001C083E08DD089C08234E0
:107E800011F484E103C0853419F485E0A6D080C0E4
:107E9000853579F488D0E82EFF2485D0082F10E0AE
:107EA000102F00270E291F29000F111F8ED06801E7
:107EB0006FC0863521F484E090D080E0DECF843638
:107EC00009F040C070D06FD0082F6DD080E0C81688
:107ED00080E7D80618F4F601B7BEE895C0E0D1E017
:107EE00062D089930C17E1F7F0E0CF16F0E7DF06D8
:107EF00018F0F601B7BEE89568D007B600FCFDCFD4
:107F0000A601A0E0B1E02C9130E011968C91119780
:107F100090E0982F8827822B932B1296FA010C0160
:107F200087BEE89511244E5F5F4FF1E0A038BF0790
:107F300051F7F601A7BEE89507B600FCFDCF97BE46
:107F4000E89526C08437B1F42ED02DD0F82E2BD052
:107F50003CD0F601EF2C8F010F5F1F4F84911BD097
:107F6000EA94F801C1F70894C11CD11CFA94CF0C13
:107F7000D11C0EC0853739F428D08EE10CD085E9AC
:107F80000AD08FE07ACF813511F488E018D01DD067
:107F900080E101D065CF982F8091C00085FFFCCF94
:107FA0009093C60008958091C00087FFFCCF809118
:107FB000C00084FD01C0A8958091C6000895E0E648
:107FC000F0E098E1908380830895EDDF803219F02E
:107FD00088E0F5DFFFCF84E1DECF1F93182FE3DFCA
:107FE0001150E9F7F2DF1F91089580E0E8DFEE27F6
:047FF000FF270994CA
:027FFE00040479
:0400000300007E007B
:00000001FF
